{
  "contractName": "CreateContract",
  "abi": [
    {
      "inputs": [
        {
          "internalType": "address",
          "name": "_walletAdd",
          "type": "address"
        },
        {
          "internalType": "address[]",
          "name": "_tokenAdd",
          "type": "address[]"
        }
      ],
      "name": "getBalance",
      "outputs": [
        {
          "components": [
            {
              "internalType": "address",
              "name": "token_address",
              "type": "address"
            },
            {
              "internalType": "uint256",
              "name": "balance",
              "type": "uint256"
            }
          ],
          "internalType": "struct CreateContract.Results[]",
          "name": "",
          "type": "tuple[]"
        }
      ],
      "stateMutability": "view",
      "type": "function"
    }
  ],
  "bytecode": "0x608060405234801561001057600080fd5b5061063d806100206000396000f3fe608060405234801561001057600080fd5b506004361061002b5760003560e01c8063dca8a9e414610030575b600080fd5b61004a6004803603810190610045919061035a565b610060565b60405161005791906104bc565b60405180910390f35b60608060005b8351811015610184576000848281518110610084576100836104de565b5b6020026020010151905060008173ffffffffffffffffffffffffffffffffffffffff166370a08231886040518263ffffffff1660e01b81526004016100c9919061051c565b602060405180830381865afa1580156100e6573d6000803e3d6000fd5b505050506040513d601f19601f8201168201806040525081019061010a9190610563565b9050604051806040016040528087858151811061012a576101296104de565b5b602002602001015173ffffffffffffffffffffffffffffffffffffffff16815260200182815250848481518110610164576101636104de565b5b60200260200101819052505050808061017c906105bf565b915050610066565b508091505092915050565b6000604051905090565b600080fd5b600080fd5b600073ffffffffffffffffffffffffffffffffffffffff82169050919050565b60006101ce826101a3565b9050919050565b6101de816101c3565b81146101e957600080fd5b50565b6000813590506101fb816101d5565b92915050565b600080fd5b6000601f19601f8301169050919050565b7f4e487b7100000000000000000000000000000000000000000000000000000000600052604160045260246000fd5b61024f82610206565b810181811067ffffffffffffffff8211171561026e5761026d610217565b5b80604052505050565b600061028161018f565b905061028d8282610246565b919050565b600067ffffffffffffffff8211156102ad576102ac610217565b5b602082029050602081019050919050565b600080fd5b60006102d66102d184610292565b610277565b905080838252602082019050602084028301858111156102f9576102f86102be565b5b835b81811015610322578061030e88826101ec565b8452602084019350506020810190506102fb565b5050509392505050565b600082601f83011261034157610340610201565b5b81356103518482602086016102c3565b91505092915050565b6000806040838503121561037157610370610199565b5b600061037f858286016101ec565b925050602083013567ffffffffffffffff8111156103a05761039f61019e565b5b6103ac8582860161032c565b9150509250929050565b600081519050919050565b600082825260208201905092915050565b6000819050602082019050919050565b6103eb816101c3565b82525050565b6000819050919050565b610404816103f1565b82525050565b60408201600082015161042060008501826103e2565b50602082015161043360208501826103fb565b50505050565b6000610445838361040a565b60408301905092915050565b6000602082019050919050565b6000610469826103b6565b61047381856103c1565b935061047e836103d2565b8060005b838110156104af5781516104968882610439565b97506104a183610451565b925050600181019050610482565b5085935050505092915050565b600060208201905081810360008301526104d6818461045e565b905092915050565b7f4e487b7100000000000000000000000000000000000000000000000000000000600052603260045260246000fd5b610516816101c3565b82525050565b6000602082019050610531600083018461050d565b92915050565b610540816103f1565b811461054b57600080fd5b50565b60008151905061055d81610537565b92915050565b60006020828403121561057957610578610199565b5b60006105878482850161054e565b91505092915050565b7f4e487b7100000000000000000000000000000000000000000000000000000000600052601160045260246000fd5b60006105ca826103f1565b91507fffffffffffffffffffffffffffffffffffffffffffffffffffffffffffffffff82036105fc576105fb610590565b5b60018201905091905056fea264697066735822122083826b9428a99125a391785ce49563b10b78b5e79ac6cfe6527a9c9ba89bc20264736f6c63430008130033",
  "immutableReferences": {},
  "source": "import \"./IERC20.sol\";\npragma solidity >=0.4.22 <0.9.0;\n\ncontract CreateContract{\n    struct Results {\n        address token_address;\n        uint256 balance;\n    }\n\n    function getBalance(address _walletAdd, address[] memory _tokenAdd) public view returns (Results[] memory){\n        Results[] memory tokenAmt;\n        for(uint256 i=0; i < _tokenAdd.length; i++){\n            IERC20 tokenRef = IERC20(_tokenAdd[i]);\n            uint256 tokenBal = tokenRef.balanceOf(_walletAdd);\n            tokenAmt[i] = Results(_tokenAdd[i], tokenBal);\n        }\n        return tokenAmt;\n    }\n}\n\n",
  "sourcePath": "/Users/ganesh/Documents/GitHub/switcheo-code-challange/5/contracts/CreateContract.sol",
  "compiler": {
    "name": "solc",
    "version": "0.8.19+commit.7dd6d404.Emscripten.clang"
  },
  "schemaVersion": "3.4.13",
  "updatedAt": "2023-03-23T16:07:59.200Z",
  "devdoc": {
    "kind": "dev",
    "methods": {},
    "version": 1
  },
  "userdoc": {
    "kind": "user",
    "methods": {},
    "version": 1
  }
}